:020000040000FA
:02000000652871
:100008007E1480318B1E09280A2863280B1D0D28B1
:100018000E2863281730200095000130F8070030BB
:10002800F93D7908803AFA0087307A02031D1E28C4
:10003800D1307802031C212822286028F801F90110
:100048000130F6070030F73D7708803AFA00803033
:100058007A02031D31283D307602031C34283528E6
:100068005D28F601F7010130F4070030F53D750809
:10007800803AFA0082307A02031D4428D130740293
:10008800031C472848285A28F401F50122000C0CC3
:10009800FA007A0C0139FA000130FA06FA0DFA0D65
:1000A8000C087A06FB397A068C0061280000612862
:1000B800612800006128612800000B1163287E1068
:1000C80009006628F001F101F201F301F401F501DC
:1000D800F601F701F801F9017E10200073283F307E
:1000E8002100980419088739603899001908FC39E3
:1000F800023899000C118B170B178B160B119512E0
:0A0108009515F83095058728652845
:020000040001F9
:04000E00E4F9FFDA38
:00000001FF
